{
  "transactions": [
    {
      "hash": "0xc35a95497d31774535c34721ca8e8238b2f4a29d0addd311d405291d554c7bf3",
      "transactionType": "CALL",
      "contractName": null,
      "contractAddress": "0x056681aebe519ed484c4cdabcd9323f536fe0034",
      "function": "mint(address,string)",
      "arguments": [
        "0x6f933fdc96Ee0BDEF306621C739ffdFc846c681a",
        "ipfs://bafkreihgcwbsvuucmehs4qqkkl5pbgd4rmytd3jfkrmbejx32ns25vtp5m/0.json"
      ],
      "transaction": {
        "from": "0x6f933fdc96ee0bdef306621c739ffdfc846c681a",
        "to": "0x056681aebe519ed484c4cdabcd9323f536fe0034",
        "gas": "0x4a4ad",
        "value": "0x0",
        "input": "0xd0def5210000000000000000000000006f933fdc96ee0bdef306621c739ffdfc846c681a00000000000000000000000000000000000000000000000000000000000000400000000000000000000000000000000000000000000000000000000000000049697066733a2f2f6261666b726569686763776273767575636d6568733471716b6b6c357062676434726d797464336a666b726d62656a7833326e733235767470356d2f302e6a736f6e0000000000000000000000000000000000000000000000",
        "nonce": "0x25",
        "chainId": "0xaa36a7"
      },
      "additionalContracts": [],
      "isFixedGasLimit": false
    },
    {
      "hash": "0xf4bbdd5698cfc98f472d8553df66a97873dbf919ce8f90d04b4d1c70af6acb6f",
      "transactionType": "CALL",
      "contractName": null,
      "contractAddress": "0x056681aebe519ed484c4cdabcd9323f536fe0034",
      "function": "batchMint(address,uint256,string[])",
      "arguments": [
        "0x6f933fdc96Ee0BDEF306621C739ffdFc846c681a",
        "2",
        "[ipfs://bafkreigip7xd5mfyyfe2bpd7bsep2uqqvbqw3lb24gabnatmizpsk45kae/1.json, ipfs://bafkreiflar37xm4k4iq6y3ahpo55cagl3pqr7gulmfkpb3gabjvr6gusb4/2.json]"
      ],
      "transaction": {
        "from": "0x6f933fdc96ee0bdef306621c739ffdfc846c681a",
        "to": "0x056681aebe519ed484c4cdabcd9323f536fe0034",
        "gas": "0xa52a9",
        "value": "0x0",
        "input": "0xcc28ec330000000000000000000000006f933fdc96ee0bdef306621c739ffdfc846c681a000000000000000000000000000000000000000000000000000000000000000200000000000000000000000000000000000000000000000000000000000000600000000000000000000000000000000000000000000000000000000000000002000000000000000000000000000000000000000000000000000000000000004000000000000000000000000000000000000000000000000000000000000000c00000000000000000000000000000000000000000000000000000000000000049697066733a2f2f6261666b726569676970377864356d66797966653262706437627365703275717176627177336c6232346761626e61746d697a70736b34356b61652f312e6a736f6e00000000000000000000000000000000000000000000000000000000000000000000000000000000000000000000000000000000000049697066733a2f2f6261666b726569666c61723337786d346b3469713679336168706f35356361676c337071723767756c6d666b7062336761626a76723667757362342f322e6a736f6e0000000000000000000000000000000000000000000000",
        "nonce": "0x26",
        "chainId": "0xaa36a7"
      },
      "additionalContracts": [],
      "isFixedGasLimit": false
    }
  ],
  "receipts": [
    {
      "status": "0x1",
      "cumulativeGasUsed": "0x92e726",
      "logs": [
        {
          "address": "0x056681aebe519ed484c4cdabcd9323f536fe0034",
          "topics": [
            "0xddf252ad1be2c89b69c2b068fc378daa952ba7f163c4a11628f55a4df523b3ef",
            "0x0000000000000000000000000000000000000000000000000000000000000000",
            "0x0000000000000000000000006f933fdc96ee0bdef306621c739ffdfc846c681a",
            "0x0000000000000000000000000000000000000000000000000000000000000000"
          ],
          "data": "0x",
          "blockHash": "0x288423faf97e9ba5c1c145926e1eaaff223c3c3e2d588cc46c8fcaf99d26b78a",
          "blockNumber": "0x9e1838",
          "blockTimestamp": "0x69a411ec",
          "transactionHash": "0xf4bbdd5698cfc98f472d8553df66a97873dbf919ce8f90d04b4d1c70af6acb6f",
          "transactionIndex": "0x43",
          "logIndex": "0x6b",
          "removed": false
        },
        {
          "address": "0x056681aebe519ed484c4cdabcd9323f536fe0034",
          "topics": [
            "0xd35bb95e09c04b219e35047ce7b7b300e3384264ef84a40456943dbc0fc17c14",
            "0x0000000000000000000000006f933fdc96ee0bdef306621c739ffdfc846c681a",
            "0x0000000000000000000000000000000000000000000000000000000000000000"
          ],
          "data": "0x00000000000000000000000000000000000000000000000000000000000000200000000000000000000000000000000000000000000000000000000000000049697066733a2f2f6261666b726569686763776273767575636d6568733471716b6b6c357062676434726d797464336a666b726d62656a7833326e733235767470356d2f302e6a736f6e0000000000000000000000000000000000000000000000",
          "blockHash": "0x288423faf97e9ba5c1c145926e1eaaff223c3c3e2d588cc46c8fcaf99d26b78a",
          "blockNumber": "0x9e1838",
          "blockTimestamp": "0x69a411ec",
          "transactionHash": "0xf4bbdd5698cfc98f472d8553df66a97873dbf919ce8f90d04b4d1c70af6acb6f",
          "transactionIndex": "0x43",
          "logIndex": "0x6c",
          "removed": false
        }
      ],
      "logsBloom": "0x00000000000000000000000000000000002010000000000000000000000000000000000000000000000000000000000000010000000000000000000000000000000000000000000000000008000000000000000000000000000000000000000000000000020000000000000000000800000000000000000000000010000000000000000000000000000000000000000001000000000000000000000000000000000000000400000000000000000000000000000000180040000000000000000000000002000000000000000010000000000000000000000000000000000020000000000000000000000000000000000000000000000000000000000000000000",
      "type": "0x2",
      "transactionHash": "0xf4bbdd5698cfc98f472d8553df66a97873dbf919ce8f90d04b4d1c70af6acb6f",
      "transactionIndex": "0x43",
      "blockHash": "0x288423faf97e9ba5c1c145926e1eaaff223c3c3e2d588cc46c8fcaf99d26b78a",
      "blockNumber": "0x9e1838",
      "gasUsed": "0x35c95",
      "effectiveGasPrice": "0x10d0ca",
      "from": "0x6f933fdc96ee0bdef306621c739ffdfc846c681a",
      "to": "0x056681aebe519ed484c4cdabcd9323f536fe0034",
      "contractAddress": null
    },
    {
      "status": "0x1",
      "cumulativeGasUsed": "0x9efd1b",
      "logs": [
        {
          "address": "0x056681aebe519ed484c4cdabcd9323f536fe0034",
          "topics": [
            "0xddf252ad1be2c89b69c2b068fc378daa952ba7f163c4a11628f55a4df523b3ef",
            "0x0000000000000000000000000000000000000000000000000000000000000000",
            "0x0000000000000000000000006f933fdc96ee0bdef306621c739ffdfc846c681a",
            "0x0000000000000000000000000000000000000000000000000000000000000001"
          ],
          "data": "0x",
          "blockHash": "0x288423faf97e9ba5c1c145926e1eaaff223c3c3e2d588cc46c8fcaf99d26b78a",
          "blockNumber": "0x9e1838",
          "blockTimestamp": "0x69a411ec",
          "transactionHash": "0xc35a95497d31774535c34721ca8e8238b2f4a29d0addd311d405291d554c7bf3",
          "transactionIndex": "0x48",
          "logIndex": "0x72",
          "removed": false
        },
        {
          "address": "0x056681aebe519ed484c4cdabcd9323f536fe0034",
          "topics": [
            "0xd35bb95e09c04b219e35047ce7b7b300e3384264ef84a40456943dbc0fc17c14",
            "0x0000000000000000000000006f933fdc96ee0bdef306621c739ffdfc846c681a",
            "0x0000000000000000000000000000000000000000000000000000000000000001"
          ],
          "data": "0x00000000000000000000000000000000000000000000000000000000000000200000000000000000000000000000000000000000000000000000000000000049697066733a2f2f6261666b726569676970377864356d66797966653262706437627365703275717176627177336c6232346761626e61746d697a70736b34356b61652f312e6a736f6e0000000000000000000000000000000000000000000000",
          "blockHash": "0x288423faf97e9ba5c1c145926e1eaaff223c3c3e2d588cc46c8fcaf99d26b78a",
          "blockNumber": "0x9e1838",
          "blockTimestamp": "0x69a411ec",
          "transactionHash": "0xc35a95497d31774535c34721ca8e8238b2f4a29d0addd311d405291d554c7bf3",
          "transactionIndex": "0x48",
          "logIndex": "0x73",
          "removed": false
        },
        {
          "address": "0x056681aebe519ed484c4cdabcd9323f536fe0034",
          "topics": [
            "0xddf252ad1be2c89b69c2b068fc378daa952ba7f163c4a11628f55a4df523b3ef",
            "0x0000000000000000000000000000000000000000000000000000000000000000",
            "0x0000000000000000000000006f933fdc96ee0bdef306621c739ffdfc846c681a",
            "0x0000000000000000000000000000000000000000000000000000000000000002"
          ],
          "data": "0x",
          "blockHash": "0x288423faf97e9ba5c1c145926e1eaaff223c3c3e2d588cc46c8fcaf99d26b78a",
          "blockNumber": "0x9e1838",
          "blockTimestamp": "0x69a411ec",
          "transactionHash": "0xc35a95497d31774535c34721ca8e8238b2f4a29d0addd311d405291d554c7bf3",
          "transactionIndex": "0x48",
          "logIndex": "0x74",
          "removed": false
        },
        {
          "address": "0x056681aebe519ed484c4cdabcd9323f536fe0034",
          "topics": [
            "0xd35bb95e09c04b219e35047ce7b7b300e3384264ef84a40456943dbc0fc17c14",
            "0x0000000000000000000000006f933fdc96ee0bdef306621c739ffdfc846c681a",
            "0x0000000000000000000000000000000000000000000000000000000000000002"
          ],
          "data": "0x00000000000000000000000000000000000000000000000000000000000000200000000000000000000000000000000000000000000000000000000000000049697066733a2f2f6261666b726569666c61723337786d346b3469713679336168706f35356361676c337071723767756c6d666b7062336761626a76723667757362342f322e6a736f6e0000000000000000000000000000000000000000000000",
          "blockHash": "0x288423faf97e9ba5c1c145926e1eaaff223c3c3e2d588cc46c8fcaf99d26b78a",
          "blockNumber": "0x9e1838",
          "blockTimestamp": "0x69a411ec",
          "transactionHash": "0xc35a95497d31774535c34721ca8e8238b2f4a29d0addd311d405291d554c7bf3",
          "transactionIndex": "0x48",
          "logIndex": "0x75",
          "removed": false
        },
        {
          "address": "0x056681aebe519ed484c4cdabcd9323f536fe0034",
          "topics": [
            "0xf315edcc2784de32d679ef01b457e458e64f7c6f6f94cdb93fc0d54b90c29b28",
            "0x0000000000000000000000006f933fdc96ee0bdef306621c739ffdfc846c681a",
            "0x0000000000000000000000000000000000000000000000000000000000000001"
          ],
          "data": "0x0000000000000000000000000000000000000000000000000000000000000002",
          "blockHash": "0x288423faf97e9ba5c1c145926e1eaaff223c3c3e2d588cc46c8fcaf99d26b78a",
          "blockNumber": "0x9e1838",
          "blockTimestamp": "0x69a411ec",
          "transactionHash": "0xc35a95497d31774535c34721ca8e8238b2f4a29d0addd311d405291d554c7bf3",
          "transactionIndex": "0x48",
          "logIndex": "0x76",
          "removed": false
        }
      ],
      "logsBloom": "0x04000000000000000000000000000000002010000000000000800000000000002000000000000000000000000000000000010000000000000000000000040000000000000000000000000008000000000000000000040000000000000000000000000000020000000000000000000800000000000000000000000010000000000000000000000000000000000000000001000000000000000000000000000000000000000400000000000100000000000000000000180040000000000000000000000002000000000000000010000001000000000000000000000000000060000000000000000000000000000000000000000000008000000000000000000000",
      "type": "0x2",
      "transactionHash": "0xc35a95497d31774535c34721ca8e8238b2f4a29d0addd311d405291d554c7bf3",
      "transactionIndex": "0x48",
      "blockHash": "0x288423faf97e9ba5c1c145926e1eaaff223c3c3e2d588cc46c8fcaf99d26b78a",
      "blockNumber": "0x9e1838",
      "gasUsed": "0x70ef3",
      "effectiveGasPrice": "0x10d0ca",
      "from": "0x6f933fdc96ee0bdef306621c739ffdfc846c681a",
      "to": "0x056681aebe519ed484c4cdabcd9323f536fe0034",
      "contractAddress": null
    }
  ],
  "libraries": [],
  "pending": [],
  "returns": {},
  "timestamp": 1772360175504,
  "chain": 11155111,
  "commit": "5931a64"
}